S0030000FC
S21400000000FF0120D10400006B0200007702000010
S2140000107B0200009F040000AB040000000000000C
S214000020000000000000000000000000ED040000DA
S214000030EF04000000000000F10400008B03000045
S214000040F7040000F3040000F5040000F9040000C3
S214000050FB040000FD040000FF0400000105000092
S214000060030500000505000007050000090500005F
S2140000700B0500000D0500000F050000110500002F
S21400008013050000150500001705000019050000FF
S2140000901B0500001D0500001F05000010B5002010
S2140000A001243D4909888907890FC9B2002905D06E
S2140000B002290ED002D3032909D01DE001243649B7
S2140000C0098889B209098907890F8C4014E0012440
S2140000D012E03149098889B209098C07A40F022C5D
S2140000E004D20122210014008C4004E001222100E9
S2140000F0491C14008C40FFE7274909888907890FA7
S214000100C9B2002908D0022909D002D3032908D091
S21400011009E0FA20C00106E000F009F803E01F48F5
S21400012001E01F48FFE7210000F048F810BD00B5C9
S2140001301C481D4909884907490FC9B200290AD039
S21400014001290AD004290AD005290AD006290AD08E
S21400015007290AD00BE0154809E0154807E01148C2
S21400016005E00E4803E0134801E00D48FFE700BD38
S21400017010B50400962000F079F80B4800880E4968
S2140001800140E4B26007400F08430749088000209A
S21400019000F06CF810BD000040000040001BB700E7
S2140001A0002D310100127A004400004040420F004A
S2140001B080841E000024F400F8FF00000022030ADA
S2140001C08B420BD203098B4219D243088B422ED2A4
S2140001D0411A00D20146524110467047FF220902DA
S2140001E03FD012068B4205D3121209028B4201D36E
S2140001F01212090203098B4219D300E0090AC30947
S2140002008B4201D3CB01C01A524183098B4201D3E2
S2140002108B01C01A524143098B4201D34B01C01ACD
S214000220524103098B4201D30B01C01A5241C30845
S2140002308B4201D3CB00C01A524183088B4201D3B4
S2140002408B00C01A524143088B4201D34B00C01AA0
S2140002505241884200D3401A5241CFD2014610463E
S214000260704708B500F008F808BDFEE7C0B2802168
S214000270C90508807047FEE77047FEE780B5002096
S214000280314908609620FFF7F1FF30480088304972
S21400029001402E4801800020FFF7E8FF72B62D4887
S2140002A0002804D02B482C490860BFF34F8F62B655
S2140002B09620FFF7DBFF29480088294901400220E5
S2140002C00843264908800020FFF7D0FF0720FFF7E5
S2140002D04FFF00F04DF89620FFF7C8FF1B48008838
S2140002E001210143194801800020FFF7BFFF0120CC
S2140002F002BD80B51B490968012902D1C0218902C7
S2140003004018804701BD80B500F006F81549086022
S2140003101548FFF7EEFF01BD10B500241022134963
S214000320FC20800200F03EF8002801D1002408E0FE
S21400033010220E49DE20C00200F034F8002800D15A
S2140003400124200010BD00001000002080000040A6
S214000350FEFF00000000000008ED00E0B0010040D5
S214000360FCFF00000C00002001010100C00400009A
S21400037080B5FFF793FE0849086001BD80B50748C1
S21400038005490860FFF77AFF01BD05480068401C74
S21400039003490860704700000000002000127A0041
S2140003A01000002010B402E0401C491C521E002A17
S2140003B009D00B7804789C42F6D002D20020C043C5
S2140003C002E0012000E0002010BC704730B5016854
S2140003D04118446862088A188368E40701D54C46C9
S2140003E01B19914201D10C3030BD0C7864B2491C07
S2140003F00D78491C1D705B1C002C02D5641CF9D1BD
S214000400EFE7641EF4D5ECE780B500F015F80200BF
S2140004100023DB431068984204D011000220ABBED4
S214000420002010605068984204D0111D0220ABBE18
S2140004300020506001BD0000004870470400002006
S21400044010B5074979441831064C7C44163404E04C
S214000450081D0A68891888470100A142F8D110BD16
S214000460080000001400000065FFFFFFB400000055
S214000470120000000000002000F00BF8002801D059
S214000480FFF7DEFF002000BF00BFFFF73CFF00F0D5
S21400049002F80120704780B500F002F801BDFEE7C3
S2140004A00746384600F002F8FBE7FEE780B5FFF7A0
S2140004B0ABFF024A11001820ABBEFBE72600020085
S2140004C0474E5353204761746577617920505247F1
S2140004D001488047014800477D030000E104000012
S2140004E000BF00BF00BF00BFFFF7C6FFFEE7FEE786
S2140004F0FEE7FEE7FEE7FEE7FEE7FEE7FEE7FEE7CF
S214000500FEE7FEE7FEE7FEE7FEE7FEE7FEE7FEE7BE
S214000510FEE7FEE7FEE7FEE7FEE7FEE7FEE7FEE7AE
S2140005200300127A00F8FFF800FFFFFFFFFFFFFF4F
S214000530FFFFFFFFFFFFFFFFFFFFFFFFFFFFFFFFC6
S214000540FFFFFFFFFFFFFFFFFFFFFFFFFFFFFFFFB6
S214000550FFFFFFFFFFFFFFFFFFFFFFFFFFFFFFFFA6
S214000560FFFFFFFFFFFFFFFFFFFFFFFFFFFFFFFF96
S21401000000FC0120A11103008D1F02005F180300F0
S2140100106118030063180300651803000000000060
S2140100200000000000000000000000006718030048
S21401003069180300000000006B1803003D0202006F
S2140100406F1803006D1803008DA1020071180300DC
S21401005021A20200731803006FA5020075180300A1
S21401006077180300791803007B1803007D18030036
S214010070EBA802007F180300811803008318030011
S2140100808518030087180300711D020081C602004F
S21401009035CB0200891803008B180300000000000E
S2140100A0000000000000000000000000000000004A
S2140100B0000000000000000000000000000000003A
S2140100C0000000000000000000000000000000002A
S2140100D0000000000000000000000000000000001A
S2140100E0000000000000000000000000000000000A
S2140100F000000000000000000000000000000000FA
S21401010000BF00BF00BF00BF20F0ECFD00000000F4
S2140101100122634B5A6780B2614A90676048C167A3
S214010120704701225F4B1A605F4A10605F480160AA
S214010130704738B501245A4D6C6792B2584CA26785
S214010140574AD3675A4A1160002B0BD10A00521E38
S214010150584B9A4206D2584A14680A0001002000F9
S21401016003F0EEFA31BD80B500282DD10800012834
S21401017002D0022810D020E049480078582803D140
S214010180592000F022F806E04C4B00224448017842
S2140101901B2003F053FC17E041480078742803D174
S2140101A0752000F012F807E0BC239B0000223C48B3
S2140101B001781B2003F042FC06E0414B0A00384858
S2140101C001781B2003F03AFC01BD80B5344909785B
S2140101D00200D2B2914219D0314908703049394AE9
S2140101E012688918384A885436490968491C354ABC
S2140101F0116034490968642902DB0021314A116023
S214010200C0B202000121012003F074FC01BD38B523
S2140102100D000024E44300210422694603F0F3FDA7
S214010220002822D4684601786846407800020918FA
S21401023068468078000409186846C07800060918E0
S2140102406846007809186846407809186846807834
S21401025009186846C0780918A94201D1002404E0AB
S2140102601A4B2A001B2003F0E9FB200032BD10B513
S214010270CA21890000220A4C200003F00BFE144814
S2140102801449086014480C4908601449FA20800093
S21401029004F0EEFE1249002006F0BBF910BD000086
S2140102A058C30120E0C30120E4C30120E8C30120B4
S2140102B0D8C3012087130000DCC30120E60200003A
S2140102C0F502000014C60120550200004303000099
S2140102D08CDD002014C4012014F10020230101004C
S2140102E067010100F0B5BFB006F0C8FB009006F04C
S2140102F0D1FB040006F0DAFB019006F0E6FB0700EE
S21401030006F0F0FB06F02AFE060004F0BDFF05002D
S2140103107648406F012800D02DE2002073494867D7
S2140103207248C06F002800D51AE17048806F022815
S2140103306BD006286DD00A286FD00E2871D01128F0
S21401034073D0152875D0182877D01C2879D01F2887
S21401035000D17EE0242800D17FE0282800D180E06B
S2140103602C2800D181E0342800D182E0382800D141
S21401037083E03C2800D184E0402800D185E0442871
S21401038000D1B9E0482800D183E04C2800D184E0B0
S214010390512800D185E0552800D186E05A2800D1A1
S2140103A087E05E2800D188E0632800D189E06728CD
S2140103B000D18AE06C2800D18BE0702800D18CE057
S2140103C0772800D19CE07B2800D19DE07F2800D1D2
S2140103D0A6E0832800D1A7E0872800D1A8E08B28D3
S2140103E000D1A9E08F2800D1AAE0932800D1ABE084
S2140103F0972800D1ACE09B2800D1ADE0A32800D11E
S21401040086E0A62800D187E0B5E10320FFF7DDFEF0
S214010410B1E10720FFF7D9FEADE10B20FFF7D5FECE
S214010420A9E10F20FFF7D1FEA5E11220FFF7CDFECF
S214010430A1E11620FFF7C9FE9DE11920FFF7C5FED1
S21401044099E12A4800781C2802D11D20FFF7BDFE3D
S21401045091E12020FFF7B9FE8DE12520FFF7B5FEDB
S21401046089E12920FFF7B1FE85E12D20FFF7ADFEDA
S21401047081E13520FFF7A9FE7DE13920FFF7A5FED2
S21401048079E13D20FFF7A1FE75E14120FFF79DFED2
S21401049071E14920FFF799FE6DE14D20FFF795FECA
S2140104A069E15220FFF791FE65E15620FFF78DFEC8
S2140104B061E15B20FFF789FE5DE15F20FFF785FEC6
S2140104C059E16420FFF781FE55E16820FFF77DFEC4
S2140104D051E16D20FFF779FE4DE10448C06F012818
S2140104E006D17320FFF771FE05E000BF58C3012057
S2140104F07120FFF76AFE3EE14520FFF766FE3AE10E
S2140105007820FFF762FE36E17C20FFF75EFE32E1DF
S214010510A420FFF75AFE2EE1A720FFF756FE2AE198
S2140105208020FFF752FE26E18420FFF74EFE22E1EF
S2140105308820FFF74AFE1EE18C20FFF746FE1AE1EF
S2140105409020FFF742FE16E19420FFF73EFE12E1EF
S2140105509820FFF73AFE0EE19C20FFF736FE0AE1EF
S214010560A248806F022867D0062869D00A286BD077
S2140105700E286DD011286FD0152871D0182873D089
S2140105801C2875D01F287BD024287DD0282800D190
S2140105907EE02C2800D17FE0342800D180E0382886
S2140105A000D181E03C2800D182E0402800D183E0E0
S2140105B0442800D1ACE0482800D181E04C2800D185
S2140105C082E0512800D183E0552800D184E05A28E2
S2140105D000D185E05E2800D186E0632800D187E05F
S2140105E0672800D188E06C2800D189E0702800D106
S2140105F08AE0772800D18FE07B2800D190E07F2821
S21401060000D199E0832800D19AE0872800D19BE0A9
S2140106108B2800D19CE08F2800D19DE0932800D143
S2140106209EE0972800D19FE09B2800D1A0E0A32858
S2140106307AD0A6287CD09EE00420FFF7C6FD9AE07B
S2140106400820FFF7C2FD96E00C20FFF7BEFD92E002
S2140106501020FFF7BAFD8EE01320FFF7B6FD8AE003
S2140106601720FFF7B2FD86E01A20FFF7AEFD82E005
S2140106705E4800781C2802D11E20FFF7A6FD7AE00E
S2140106802120FFF7A2FD76E02620FFF79EFD72E00F
S2140106902A20FFF79AFD6EE02E20FFF796FD6AE00E
S2140106A03620FFF792FD66E03A20FFF78EFD62E006
S2140106B03E20FFF78AFD5EE04220FFF786FD5AE006
S2140106C04A20FFF782FD56E04E20FFF77EFD52E0FE
S2140106D05320FFF77AFD4EE05720FFF776FD4AE0FC
S2140106E05C20FFF772FD46E06020FFF76EFD42E0FA
S2140106F06520FFF76AFD3EE06920FFF766FD3AE0F8
S2140107006E20FFF762FD36E07220FFF75EFD32E0F5
S2140107104620FFF75AFD2EE07920FFF756FD2AE026
S2140107207D20FFF752FD26E0A520FFF74EFD22E0D3
S214010730A820FFF74AFD1EE08120FFF746FD1AE0DC
S2140107408520FFF742FD16E08920FFF73EFD12E007
S2140107508D20FFF73AFD0EE09120FFF736FD0AE007
S2140107609520FFF732FD06E09920FFF72EFD02E007
S2140107709D20FFF72AFD56480068012851D1002028
S2140107805349086053480068FA218900884248D1D5
S21401079051480068082804D043D30A280DD027D32F
S2140107A03FE0124800781F2806D14C494C4806F015
S2140107B08FFC1D20FFF709FD33E00C4800781C284C
S2140107C003D00A4800781E2803D12320FFF7FDFC3A
S2140107D00AE0064800781F2806D14049404806F03E
S2140107E077FC2320FFF7F1FC1BE000BF58C3012074
S2140107F03C4800781F2803D13849394806F068FC80
S2140108003848406D032808DA3648406D401C3549A3
S21401081048651B20FFF7D9FC02E02220FFF7D5FC34
S214010820FFE73048C06E002808D0022816D006D34D
S214010830042833D021D3052841D055E057E0294874
S2140108400078002809D10120FFF7BFFC2548C06EBB
S2140108502449886000202349C86648E0214800787A
S214010860002809D10120FFF7B0FC1E48C06E1D49C3
S214010870886000201B49C86639E01A4800780028BD
S2140108800BD107F014FD0120FFF79FFC1548C06E41
S2140108901449886000201349C86628E0114800788A
S2140108A000280BD107F003FD0120FFF78EFC0D4851
S2140108B0C06E0C49886000200A49C86617E00948DE
S2140108C00078002802D17A20FFF77FFC0FE000BFF6
S2140108D0E0C30120E4C30120E8C30120407E0500F7
S2140108E01F00604058C3012000200249C866014825
S2140108F002E000BF58C301200078002800D176E24C
S214010900401E00D178E2401E00D1AFE2401E012811
S21401091000D8ADE2801E00D1AFE2401E00D1B6E3A2
S214010920401E00D1B5E3401E00D1BBE3401E00D1FE
S214010930C7E3401E00D1D1E3401E00D1D0E3401EE4
S21401094000D1E6E3401E00D1F2E3401E01D100F0E3
S21401095001FC401E01D100F0FFFB401E01D100F05A
S21401096010FC401E01D100F011FC401E012801D8E8
S21401097000F00EFC801E01D100F035FC401E01D1B6
S21401098000F046FC401E01D100F044FC401E01D19F
S21401099000F058FC401E01D100F070FC401E01D151
S2140109A000F06EFC401E01D100F06FFC401E01D12C
S2140109B000F077FC401E01D100F09EFC401E01D1E4
S2140109C000F09CFC401E01D100F027FD401E01D125
S2140109D000F038FD401E012801D800F047FD801EBA
S2140109E001D100F055FD401E01D100F067FD401E0B
S2140109F001D100F055FE401E012801D800F075FE19
S214010A00801E01D100F081FE401E01D100F0A7FE3C
S214010A10401E01D100F0A5FE401E01D100F05FFF8F
S214010A20401E01D100F070FF401E01D100F078FF9A
S214010A30401E01D100F076FF401E01D100F077FF85
S214010A40401E01D100F085FF401E01D100F0D0FF0D
S214010A50401E01D100F0DAFF401E01D101F040F83E
S214010A60401E01D101F04AF8401E01D101F04BF8B9
S214010A70401E01D101F049F8401E01D101F071F884
S214010A80401E01D101F080F8401E01D101F0A3F80B
S214010A90401E01D101F0A1F8401E01D101F072F90A
S214010AA0401E01D101F07EF9401E01D101F0A1F9ED
S214010AB0401E01D101F09FF9401E01D101F07EFADE
S214010AC0401E01D101F08AFA401E01D101F0ADFAB3
S214010AD0401E01D101F0ABFA401E01D101F04FFBDF
S214010AE0401E01D101F062FB401E01D101F07DFBE9
S214010AF0401E01D101F07BFB401E01D101F07CFBC1
S214010B00401E01D101F089FB401E01D101F09CFB82
S214010B10401E01D101F09AFB401E01D101F0A1FB5C
S214010B20401E01D101F0BBFB401E01D101F0C6FB06
S214010B30401E01D101F0C4FB401E01D101F0C5FBEE
S214010B40401E01D101F0D2FB401E01D101F034FC60
S214010B50401E01D101F03DFC401E01D101F03BFCDD
S214010B60401E01D101F043FC401E01D101F050FCB2
S214010B70401E01D101F059FC401E01D101F057FC85
S214010B80401E01D101F06DFC401E01D101F07AFC3E
S214010B90401E01D101F091FC401E01D101F09EFCE6
S214010BA0401E01D101F09CFC401E01D101F09DFCCC
S214010BB0401E01D101F09EFC401E01D101F0A9FCAE
S214010BC0401E01D101F0A7FC401E01D101F0A8FC96
S214010BD0401E01D101F0B5FC401E01D101F013FD0C
S214010BE0401E01D101F01CFD401E01D101F01AFD8D
S214010BF0401E01D101F022FD401E01D101F02FFD62
S214010C00401E01D101F03CFD401E01D101F03AFD2C
S214010C10401E01D101F052FD401E01D101F05FFDE1
S214010C20401E01D101F0CFFD401E01D101F0D8FDDB
S214010C30401E01D101F0D6FD401E01D101F0DEFDBE
S214010C40401E01D101F0EBFD401E01D101F0F8FD7F
S214010C50401E01D101F0F6FD401E01D101F017FE44
S214010C60401E01D101F024FE401E01D101F02DFEEF
S214010C70401E01D101F04AFE401E01D101F04BFE9B
S214010C80401E01D101F052FE401E01D101F050FE7E
S214010C90401E01D101F051FE401E01D101F05CFE63
S214010CA0401E01D101F068FE401E01D101F066FE32
S214010CB0401E01D101F06DFE401E01D101F087FEFC
S214010CC0401E01D101F0D0FE401E01D101F0CEFE42
S214010CD0401E01D101F0F4FE401E01D101F001FFDA
S214010CE0401E01D101F006FF401E01D101F004FFB4
S214010CF0401E01D101F0CDFF401E01D101F0E0FF01
S214010D00401E01D102F006F8401E01D102F004F89F
S214010D10401E01D102F02CF8401E01D102F039F834
S214010D20401E01D102F048F8401E01D102F046F8FB
S214010D30401E01D102F006F9401E01D102F016F95B
S214010D40401E01D102F03AF9401E01D102F037F9F6
S214010D50401E01D102F05EF9401E01D102F06BF98E
S214010D60401E01D102F076F9401E01D102F073F95E
S214010D70401E01D102F02EFA401E01D102F040FAC7
S214010D80401E01D102F061FA401E01D102F05EFA66
S214010D90401E01D102F086FA401E01D102F092FAFD
S214010DA0401E01D102F0A2FA401E01D102F09FFAC4
S214010DB0401E01D102F05EFB401F01D102F06EFB26
S214010DC0401E01D102F002FC401E01D102F0FFFBE1
S214010DD0401E01D102F059FC401E01D102F056FC22
S214010DE0401E012801D802F055FC02F056FC0020F6
S214010DF007F0D6FA02F051FCD3488068012806D0E5
S214010E0032D3032823D012D3042827D02CE0242061
S214010E1008F09CFC0120CC494870CC4AFA21C90054
S214010E20CB4806F01EF90220FFF7CFF91CE0272079
S214010E3008F08CFC0220C4494870C44AFA21C90053
S214010E40C34806F00EF90220FFF7BFF90CE00120B7
S214010E50BD4948700520FFF7B8F905E00220BA49F8
S214010E6048700520FFF7B1F902F017FC02F015FCF7
S214010E700520FFF7AAF902F010FC0120B2498863A9
S214010E80B148806BB04988640020AF490865AE4818
S214010E908068012809D000D2DBE0032800D1B8E041
S214010EA06BD3042800D1C1E0D3E041220099C14CA4
S214010EB0200002F045FC0622009801004131BE4C9C
S214010EC0200002F03DFC2122009801004731BB4C76
S214010ED0200002F035FC2122009801006831B84C50
S214010EE0200002F02DFC05F0DDFC012817D141227F
S214010EF0009801008931B34C200002F021FC412208
S214010F0000980100CA31B04C200002F019FC802084
S214010F1040028D49486000208B49086516E0412251
S214010F20009801008931A74C200002F009FC4122FB
S214010F3000980100CA31A44C200002F001FC802078
S214010F40C0028149486064207F490865994984B098
S214010F506846FF220C3202F007FC0FBC05F0B7FD15
S214010F6000209A49086000209949086000209949A4
S214010F7008600420984908606BE0412221008D4DED
S214010F80280002F0DDFB0622210041318A4D2800AF
S214010F9002F0D6FB212221004731884D280002F0BD
S214010FA0CFFB212221006831854D280002F0C8FBC5
S214010FB04122FF200C302118824D280002F0C0FB90
S214010FC04122A620400021187F4C200002F0B8FBE9
S214010FD0784984B06846FF220C3202F0C5FB0FBC8C
S214010FE005F075FD0020584948638020C002CC49B1
S214010FF0086080200003CB490860C0200003CA496E
S21401100008608020C0027349086018207249086091
S2140110101FE000206D49086000206D49086000202F
S2140110206C49086004206C49086012E08020C00208
S214011030BB49086080200003BA490860C02000034D
S214011040B94908608020C0026249086018206249D8
S2140110500860012007F0A4F9B4490022B4480468E6
S214011060200002F017FF802149010022B1480468E0
S214011070200002F00FFF354906200AF03BF9062052
S214011080FFF7A3F800203049886502F006FB02F05E
S21401109004FB0AF01BFA0AF03AFB0920FFF795F861
S2140110A002F0FBFA0020C04327498865A220FFF71B
S2140110B08CF8D34B002200211B2002F0BFFC02F06B
S2140110C0ECFA224B0A22444801684248006802F0C2
S2140110D057FE0A20FFF779F802F0DFFA02F0DDFA90
S2140110E019488068401E012804D9801E06D0401E7B
S2140110F008D00CE01420FFF768F808E07E20FFF720
S21401110064F804E00AF080FE8620FFF75EF802F03D
S214011110C4FA0020C0430C498865A220FFF755F8A1
S214011120D04B002200211B2002F088FC02F0B5FA09
S214011130064AFA21C900CC4805F093FF0E20FFF7B6
S21401114044F802F0AAFA00BF58C3012011010100B9
S2140111500200604002F0A1FA002D10D1D4491120FE
S21401116004F018F8002807D5D24B0022D24801789F
S2140111701B2002F063FC02E01120FFF726F802F0C4
S2140111808CFA0D20FFF721F802F087FA02F085FAB3
S214011190306F012822D00020C043C7498865A220AD
S2140111A0FFF713F8DA4B002200211B2002F046FC61
S2140111B017E000BF20C4012061C4012067C40120DC
S2140111C088C40120A9C40120EAC40120FCC301206F
S2140111D0ECC301200CC4012010C401201620FEF728
S2140111E0F4FF02F05AFA002D10D1B149152003F090
S2140111F051FF002807D5C74B0022AF4801781B20B6
S21401120002F01CFC02E01520FEF7DFFF02F045FAB3
S21401121002F043FA002D13D1A549182003F064FF0C
S214011220002807D5BC4B0022A34801781B2002F0FA
S21401123005FC05E00020A04948651820FEF7C5FF1B
S21401124002F02BFA9C48406D02280BDA9A48406D52
S214011250401C994948650020974908660D20FEF70D
S214011260B4FF09E00020C04393498865A220FEF739
S214011270ACFF00209049486502F00FFA02F00DFA23
S2140112801B20FEF7A2FF02F008FA8B48006E012829
S21401129005D10020884908660D20FEF796FF02F06A
S2140112A0FCF9002D16D1824A1C218348806B824BA3
S2140112B01B6DC01803F042FF002807D5DF4B002244
S2140112C07D4801781B2002F0B9FB13E01C20FEF7D5
S2140112D07CFF0FE0306F01280CD00020C043764918
S2140112E08865A220FEF771FFD54B002200211B2046
S2140112F002F0A4FB02F0D1F902F0CFF900206E490A
S21401130048656D488068012816D101206A498863BE
S2140113100020694948652720FEF757FF7BE000BF9C
S21401132000C4012004C4012008C401208813000061
S21401133014C40120DCC30120D348007880072ED4D2
S2140113405D48406B022101435B4841634122FF2017
S2140113508E302118CD4D280002F0F2F94122E72007
S21401136040002118CA4C200002F0EAF9C94984B0AD
S2140113706846FF220C3202F0F7F90FBC05F0A7FB16
S21401138001204D49886300204B494865484AC249B7
S214011390C24805F066FE2420FEF717FF3BE0BA4878
S2140113A0007840072ED44448406B0421014342484C
S2140113B04163412221008931B44D280002F0C0F971
S2140113C041222100CA31B24C200002F0B9F9B149DC
S2140113D084B06846FF220C3202F0C6F90FBC05F055
S2140113E076FB012034498863002033494865304A3A
S2140113F0A949AA4805F035FE2420FEF7E6FE0AE0D4
S2140114003E0600002C48406B012101432A484163F7
S2140114103320FEF7DAFE02F040F92748006E012875
S21401142006D10020244908660D20FEF7CEFE07E00F
S2140114301F4AD149D14805F014FE1F20FEF7C5FE0C
S21401144002F02BF91C48006E012809D100201A4928
S2140114500866C949C94805F03BFE0D20FEF7B5FEF2
S21401146002F01BF9620600000E0060401248406D53
S214011470032808DA1048406D401C0F4948651B20B8
S214011480FEF7A3FE02E02220FEF79FFE02F005F91A
S2140114900020C04308498865A220FEF796FEB84B97
S2140114A0002200211B2002F0C9FA02F0F6F800BF64
S2140114B0110101007606000058C30120B14880687A
S2140114C001282BD1AF48806B401EAE49C861AD489C
S2140114D0C06900280DD00120AA498863A948806BFD
S2140114E0A84988640020A74948652720FEF76DFEB5
S2140114F0C8E00020C043A3498865A220FEF765FE28
S214011500A14B002200211B2002F098FABAE000BF8E
S2140115108C0600009E060000AD0600005A480078C2
S214011520800744D49748406B0221014395484163A4
S2140115309448806B401E934948629248406A00284E
S21401154027D04122FF208E302118504D280002F06E
S214011550F7F84122E720400021184D4C200002F008
S214011560EFF84C4984B06846FF220C3202F0FCF8D2
S2140115700FBC05F0ACFA0120824988638148806B74
S2140115808049886400207F4948651B20FEF71DFEC0
S21401159078E00020C0437B498865A220FEF715FE4F
S2140115A0D74B002200211B2002F048FA6AE0364899
S2140115B00078400746D47348406B042101437148C4
S2140115C041637048806B401E6E4988626D48806A30
S2140115D0002825D04122210089312C4D280002F017
S2140115E0AFF841222100CA31294C200002F0A8F8A8
S2140115F0284984B06846FF220C3202F0B5F80FBCC9
S21401160005F065FA01205F4988635E48806B5D4995
S214011610886400205B4948651B20FEF7D6FD31E053
S2140116200020C04357498865A220FEF7CEFDB54B82
S214011630002200211B2002F001FA23E0DE06000052
S214011640F20600004F48406B012101434D484163BB
S2140116504C48806B401E4B4908624A48006A002885
S21401166003D03320FEF7B1FD0CE00020C04345490E
S2140116708865A220FEF7A9FDCD4B002200211B2084
S21401168002F0DCF902F009F88CC30120A9C401209C
S214011690EAC4012020C40120E8FD000024006040C7
S2140116A03848006E012809D1002036490866C1492C
S2140116B0C14805F00DFD0D20FEF787FD306F0128AE
S2140116C011D0BC49BC4805F003FD0020C0432D499C
S2140116D08865A220FEF779FDFD23DB0000220021AC
S2140116E01B2002F0ABF901F0D8FF2648006E012856
S2140116F006D10020234908660D20FEF766FD02E0AC
S2140117001B20FEF762FD01F0C8FF002D25D1AB4A74
S21401171028211C48806B1B4B1B6DC01803F062FD13
S214011720002807D5A64B0022164801781B2002F098
S21401173085F912E02820FEF748FD05F065FDA14970
S214011740086000200F49C86200200E49C8640020C6
S214011750DB4908600020DB49086001F09EFF01F0CC
S2140117609CFF08480069401C06490861D648006885
S214011770002851D0002442E0407E05001F00604052
S2140117806607000058C301207D070000CF480068A7
S214011790005DCF490968CA4A12688854C94800687A
S2140117A0CA490968095D4018C6490860C448006806
S2140117B0401CC3490860C2480068FF281EDD80221D
S2140117C05200C3480168C3480068C34B1B68C01871
S2140117D002F0F8FA002803D50020C043BF49886507
S2140117E0B7480068FF21C9434018B5490860BA48A0
S2140117F00068802149004018B7490860641CB24857
S2140118000068801E8442C1DB2820FEF7DEFC05F05E
S214011810FBFC6C4908605CE0A9480068012825DBF0
S214011820A7480268AA480168AA480068AA4B1B682C
S214011830C01802F0C7FA00280ED50020C043A749F9
S2140118408865D04B9E480268A2480068A24909688C
S21401185041181B2002F0F2F89F4800689849096871
S21401186040189D4908600020954908609B48806D96
S2140118700021C94388420AD0924801689548006809
S214011880954A12688018001FFEF7C1FC01E000208F
S214011890C04300280ED50020C04390498865A22089
S2140118A0FEF793FCD24B00228B4801681B2002F006
S2140118B0C5F80EE088480068001F8749086086481A
S2140118C000688649C8620020844948642B20FEF7D8
S2140118D07CFC05F099FC3B49086001F0DEFE002027
S2140118E0C0437E498865A220FEF76FFCC14B0022EB
S2140118F07A4801691B2002F0A1F801F0CEFE00BF74
S2140119009C070000B9070000BB4B2C22302173480E
S214011910406805F0F1F82C20FEF757FC01F0BDFEFB
S21401192001F0BBFE2F20FEF750FC01F0B6FE0020B2
S214011930C0436A498865A220FEF747FC88231B013D
S2140119405F480268654841681B2002F077F801F09D
S214011950A4FE6248C06A6149496C80225143401A1C
S2140119605749086056480068812803DB802054499F
S214011970086003E052480068514908605048006812
S214011980002802D500204E4908604D48006800280E
S2140119901AD0504800685149496C80225143441876
S2140119A0474802684A480168200002F02CFA0CE019
S2140119B0CC070000E8FD0000240060403301010070
S2140119C00208000018C601200020002807D5D04BC9
S2140119D00022424801781B2002F030F806E0302051
S2140119E0FEF7F3FB05F010FCCA49086001F055FE4E
S2140119F005F00AFC0100C748006805F009FC152837
S214011A0002D33120FEF7E1FB01F047FE2C480068C7
S214011A10002849D02A480068812835DA2F484068CE
S214011A202E49496C802251434418254802682848AB
S214011A300168200005F073F800280ED50020C04389
S214011A4026498865A220FEF7C0FBB34B1C480268F6
S214011A5021001B2001F0F2FF30E02048406C401CC2
S214011A601E4948641D48006B1549096840181B4902
S214011A7008630020194948653220FEF7A6FB05F0E9
S214011A80C3FBA449086019E00020C04313498865D8
S214011A90A220FEF79AFB8D231B010948026800214C
S214011AA01B2001F0CBFF09E0A220FEF78EFB0B48BE
S214011AB0006B0349096840180849086301F0EDFD09
S214011AC018C401201CC40120D8C30120DCC3012096
S214011AD014C40120FCC30120ECC3012058C301201B
S214011AE005F092FB01008B48006805F091FB152874
S214011AF002D32F20FEF769FB01F0CFFD3520FEF75C
S214011B0064FB01F0CAFD01F0C8FD0120BF498863EE
S214011B10BE48806BBD4988640020BC4948654122A7
S214011B20FF208E302118BA4D280001F009FE41220F
S214011B30E72040002118B74C200001F001FEB6490D
S214011B4084B06846FF220C3201F00EFE0FBC04F092
S214011B50BEFF0020D44908603720FEF736FB01F0AF
S214011B609CFD0020C043A9498865A220FEF72DFBF5
S214011B70CE4BCF480268CC4801681B2001F05EFFBF
S214011B8001F08BFD3B080000002D22D1C94A382107
S214011B909E48806B9D4B1B6DC01803F023FB0028ED
S214011BA007D5C54B0022994801781B2001F046FF56
S214011BB00FE03820FEF709FB05F026FB55490860C3
S214011BC00020BE4908600020B74908600020BC49D3
S214011BD0086001F062FD01F060FD8C480069401C60
S214011BE08A490861B248006800284DD000243EE0CA
S214011BF04F0800006C08000011010100D34800687E
S214011C00005DD3490968A84A12688854AC48006840
S214011C10CE490968095D4018A9490860A2480068CC
S214011C20401CA1490860A0480068FF281EDD8022EC
S214011C305200C7480168C7480068A04B1B68C01817
S214011C4002F0C0F8002803D50020C0436F4988651C
S214011C5095480068FF21C943401893490860974892
S214011C60006880214900401894490860641C904827
S214011C700068801E8442C1DB3820FEF7A6FA05F014
S214011C80C3FA244908607BE08748006801281ADB0C
S214011C9085480268AE480168AE480068874B1B68F5
S214011CA0C01802F08FF8002803D50020C04357491A
S214011CB08865824800687C49096840187F49086041
S214011CC00020794908605148806D0021C943884247
S214011CD00AD07B4801689F480068784A12688018D5
S214011CE0001FFEF794FA01E00020C043002815D536
S214011CF00020C04345498865A220FEF766FAD14B0D
S214011D0000226E4801681B2001F098FE38E000BFF3
S214011D10A108000018C60120BE0800006748006838
S214011D20001F664908600120384988633748806B80
S214011D30364988640020354948654122FF200C3029
S214011D402118334D280001F0FBFC4122A62040005B
S214011D502118304C200001F0F3FC2F4984B068466E
S214011D60FF220C3201F000FD0FBC04F0B0FE002093
S214011D704D4908603B20FEF728FA002023490861F8
S214011D8001F08BFC0020C04320498865A220FEF7A5
S214011D901CFAD04B00221D4801691B2001F04EFEA3
S214011DA001F07BFC002D22D1424A3C211748806B72
S214011DB0164B1B6DC01803F015FA002807D5C64B45
S214011DC00022124801781B2001F038FE0FE03C206B
S214011DD0FEF7FBF905F018FAC04908600020C04973
S214011DE0086000203049086000203549086001F08D
S214011DF054FC01F052FC05480069401C0349086187
S214011E002B48006800285DD0002440E058C301201C
S214011E10A9C40120EAC4012020C401204B4800685F
S214011E20005D4B490968204A1268885424480068B6
S214011E3046490968095D4018214908601A48006842
S214011E40401C1949086018480068FF281EDD8022DA
S214011E5052003F480168D2480068A14B1B68C01871
S214011E6001F0B0FF002803D50020C043CD498865A6
S214011E700D480068FF21C94340180B49086098487F
S214011E80006880214900401895490860641C08488C
S214011E900068801E8442C1DB3C20FEF796F905F0FF
S214011EA0B3F98E49086087E018C401200B090000C9
S214011EB0D8C301203301010018090000F0C3012036
S214011EC01CC40120B848006801281ADBB64802681D
S214011ED01F480168B2480068814B1B68C01801F0B2
S214011EE071FF002803D50020C043AE4988657C48B1
S214011EF00068AD4909684018794908600020AA4978
S214011F000860A848806D0021C94388420AD0C748A6
S214011F100168A3480068724A12688018001FFEF71D
S214011F2076F901E00020C043002815D50020C04303
S214011F309C498865A220FEF748F9BD4B00226848F7
S214011F4001681B2001F07AFD36E000BFDCC30120EA
S214011F5014C4012000C4012061480068001F6049C4
S214011F60086001208F4988638E48806B8D4988649C
S214011F7000208C494865412221008931AD4D280059
S214011F8001F0DEFB41222100CA31AB4C200001F0FA
S214011F90D7FBAA4984B06846FF220C3201F0E4FB65
S214011FA00FBC04F094FD00207F4908603F20FEF737
S214011FB00CF900207B49086101F06FFB0020C0434B
S214011FC078498865A220FEF700F99D4B00227548E6
S214011FD001691B2001F032FD01F05FFB002D22D1CB
S214011FE0984A40216F48806B6E4B1B6DC01803F0FA
S214011FF0F9F8002807D5DC4B00226A4801781B2037
S21401200001F01CFD0FE04020FEF7DFF805F0FCF8BC
S214012010324908600020D5490860002062490860FE
S21401202000208249086001F038FB01F036FB5D486C
S2140120300069401C5B490861DB480068002851D0F4
S21401204000243AE064090000D8480068005DD849D9
S2140120500968554A1268885474480068D349096863
S214012060095D4018714908604F480068401C4E4998
S21401207008604D480068FF281EDD80225200CC48CB
S2140120800168CC480068B94B1B68C01801F09AFE7D
S214012090002803D50020C0434249886542480068AD
S2140120A0FF21C943401840490860B04800688021B4
S2140120B049004018AD490860641CBB480068801E92
S2140120C08442C1DB4020FEF780F805F09DF8034905
S2140120D0086052E0820900008D09000018C6012040
S2140120E0F4C301203048006801281ADB2E48026834
S2140120F0AF480168AF4800689C4B1B68C01801F0E8
S21401210061FE002803D50020C0432649886597480C
S214012110006825490968401894490860002022494A
S21401212008602048806D0021C94388420AD03F4894
S2140121300168A04800688D4A12688018001FFEF7E3
S21401214066F801E00020C04300280ED50020C043F9
S21401215014498865A220FEF738F8DD4B0022834833
S21401216001681B2001F06AFC07E04320FEF72DF80A
S2140121707E480068001F7D49086001F08EFA002045
S214012180C04308498865A220FEF71FF8D14B0022FC
S214012190044801691B2001F051FC01F07EFA00BFE2
S2140121A004C4012058C3012018C4012004F03EFADB
S2140121B0072811D1C848006F012806D10020C6495A
S2140121C048657A20FEF701F80DE00020C24948650F
S2140121D04720FDF7FAFF06E0DF49442004F07AF9CC
S2140121E04420FDF7F2FF01F058FA01F056FA4B20B1
S2140121F0FDF7EBFF01F051FA0020C043B6498865B0
S214012200A220FDF7E2FFD54B67480268D448016873
S2140122101B2001F013FC01F040FACF49482004F0DE
S214012220A3F94820FDF7D1FF01F037FA1CC40120BD
S214012230D9090000A9C40120EAC4012020C4012054
S214012240F80900003301010001F027FA0120A24934
S21401225088630020C24908604B20FDF7B6FF01F0F5
S2140122601CFA9D48406D052808DA4720FDF7ADFFAA
S2140122709948406D401C984948650EE00020C043CF
S21401228095498865A220FDF7A0FFCF4B4648026816
S214012290B34801681B2001F0D1FB01F0FEF9AE49FD
S2140122A04C2004F023F94C20FDF78FFF00208A49CB
S2140122B0086400208849086101F0EFF901F0EDF9A2
S2140122C04F20FDF782FF01F0E8F90020C043824964
S2140122D08865A220FDF779FFBC4B33480268A04809
S2140122E001681B2001F0AAFB01F0D7F97A480069C2
S2140122F0092109F063FE082903D10E207649C8603A
S21401230003E0802040017449C86073480069401C9E
S21401231071490861D84800686F49096C401A6E49CE
S214012320C968884228DB6C48C0688D4908608C48BB
S21401233002681F480168D1480068674B1B6CC018CB
S21401234001F061FD6448C0680E2808D06248006C40
S214012350834909684018C8490968884208DB54203F
S214012360FDF733FF1DE000BF050A0000F8C301209A
S2140123705020FDF72AFF14E0BF4800685649096C53
S214012380401A774908607648026809480168BB48E0
S2140123900068514B1B6CC01801F035FD5420FDF749
S2140123A014FF01F07AF900BFD8C30120DCC3012075
S2140123B014C4012008C40120674B512268480168F3
S2140123C0D448006804F0A8F85120FDF7FEFE01F09D
S2140123D064F901F062F94048006C614909684018E7
S2140123E03D4908644F20FDF7F0FE01F056F9002044
S2140123F0C04339498865A220FDF7E7FEC64BC748AA
S2140124000268574801681B2001F018FB01F045F9E6
S214012410514B552252480168BE48006804F08AF8BC
S2140124205520FDF7D2FE01F038F901F036F92A48B9
S214012430006C4B4909684018274908642648006C17
S2140124408D490968884207DB5820FDF7BEFE04F077
S214012450DBFECC49086002E04F20FDF7B6FE01F036
S2140124601CF90020C0431C498865A220FDF7ADFE7B
S214012470C54BAA4802683A4801681B2001F0DEFAFB
S21401248001F00BF904F0C0FE0100BE48006804F03C
S214012490BFFEBE4988420ED30020C0430E49886560
S2140124A0A220FDF792FEE44B9C4802682C48016886
S2140124B01B2001F0C3FA01F0F0F8274A6421DF4837
S2140124C004F0CFFD5A20FDF780FE01F0E6F800BFCC
S2140124D0520A0000630A000058C3012001F0DDF82B
S2140124E05D20FDF772FE01F0D8F85D20FDF76DFE68
S2140124F001F0D3F818495E2004F004F85E20FDF7D9
S21401250064FE0020DD4908640020DC49086101F012
S214012510C4F801F0C2F86120FDF757FE01F0BDF8DE
S2140125200020C043D5498865A220FDF74EFED44B56
S2140125307A4802680A4801681B2001F07FFA01F018
S214012540ACF8CE480069092109F038FD082909D1FF
S2140125500E20CA49C86009E0110101008E0A000078
S21401256018C4012080204001C449C860C3480069DE
S214012570401CC2490861E2480068C049096C401A1B
S214012580BE49C968884227DBBC48C068DD49086087
S214012590DC4802685F480168DB480068B74B1B6C83
S2140125A0C01801F030FCB548C0680E2808D0B34802
S2140125B0006CD44909684018D1490968884207DB8C
S2140125C06620FDF702FE1CE0AB0A0000C20A00000E
S2140125D06220FDF7FAFD14E0C9480068A749096CB6
S2140125E0401AC8490860C74802684A480168C64890
S2140125F00068A24B1B6CC01801F005FC6620FDF7B5
S214012600E4FD01F04AF8D94B6322BE48016841480F
S214012610006803F081FF6320FDF7D7FD01F03DF868
S21401262001F03BF89548006CB64909684018934993
S21401263008646120FDF7C9FD01F02FF80020C043B2
S2140126408E498865A220FDF7C0FDC94B3348026854
S214012650AC4801681B2001F0F1F901F01EF8C34BEC
S2140126606722A84801682B48006803F063FF6720CB
S214012670FDF7ABFD01F011F8F0C3012000C4012005
S21401268001F00BF87D48006C9E49096840187B49AB
S21401269008647A48006C9A490968884209DB6A200E
S2140126A0FDF793FD00207549086400207349086111
S2140126B002E06120FDF789FD00F0EFFF0020C04336
S2140126C06E498865A220FDF780FDAA4B1348026873
S2140126D08C4801681B2001F0B1F900F0DEFF674865
S2140126E00069092109F06AFC002907D163480069DD
S2140126F0624948616148006C604988615F480069C9
S214012700092109F05BFC08290AD10E205B49C86043
S2140127100AE000BF14C40120FD0A0000D8C301204E
S214012720802040015549C86054480069401C5349FF
S2140127300861E04800685149096C401A4F49C96868
S214012740884229DB4D48C0686E4908606D480268BA
S214012750D9480168D9480068484B1B6CC01801F07D
S21401276052FB4648C0680E2808D04448006C6549AC
S21401277009684018CF490968884209DB6F20FDF7D0
S21401278024FD1EE018C601201A0B0000214E000091
S2140127906B20FDF71AFD14E0C64800683749096C3E
S2140127A0401A5849086057480268C3480168C34838
S2140127B00068324B1B6CC01801F025FB6F20FDF73B
S2140127C004FD00F06AFF694B6C224E480168BA4866
S2140127D0006803F0A1FE6C20FDF7F7FC00F05DFF3A
S2140127E000F05BFF2548006C4649096840182349FC
S2140127F008646A20FDF7E9FC00F04FFF0020C043A3
S2140128001E498865A220FDF7E0FCDF4BDF48026821
S2140128103C4801681B2001F011F900F03EFF534BC4
S214012820702238480168A448006803F083FE7020CF
S214012830FDF7CBFC00F031FF270B00005A0060408B
S21401284000F02BFF0D48006C2E49096840180B4913
S21401285008640A48006C97490968884212DB7420AC
S214012860FDF7B3FC00200549086400200349086110
S21401287004F0CAFCC649086007E000BF58C301203F
S214012880510B00006A20FDF7A0FC00F006FF0020B7
S214012890C043C0498865A220FDF797FCBE4BBB48E4
S2140128A00268184801681B2001F0C8F800F0F5FE20
S2140128B0B8488069B7490864B6484069B5490861AF
S2140128C06A20FDF782FC00F0E8FE04F09DFC0100A2
S2140128D0AF48006804F09CFCD74988420ED300201C
S2140128E0C043AC498865A220FDF76FFCDE4BA748C4
S2140128F00268044801681B2001F0A0F800F0CDFE34
S214012900F4C3012018C4012004C401207620FDF779
S2140129105CFC00F0C2FE154AFA218900D34804F097
S214012920A0FB7720FDF751FC00F0B7FE00F0B5FEE6
S214012930A220FDF74AFC00F0B0FE0020C0439549F6
S2140129408865A220FDF741FCDA4B002200211B20FE
S21401295001F074F800F0A1FE04497B2003F0FCFDB1
S2140129607B20FDF732FC00F098FE00BF110101004C
S2140129708C0B0000AA0B000000F08FFE0120854999
S21401298088630020CC4908604B20FDF71EFC00F050
S21401299084FE8048406D0B2808DA7E48406D401C56
S2140129A07C4948657A20FDF710FC0EE00020C04304
S2140129B078498865A220FDF708FCC04B7348026879
S2140129C0BD4801681B2001F039F800F066FE03F0EF
S2140129D069FF012815D141220199DB4C200000F046
S2140129E0AFFE4122019801004131D84C200000F091
S2140129F0A7FE8020400267494860002065490865B7
S214012A0014E041220199D04C200000F099FE4122A9
S214012A10019801004131CD4C200000F091FE80204C
S214012A20C0025C49486064205A490865C64984B0BA
S214012A306846822200F084FE0FBC09F0F1F90120FD
S214012A405449886309F0E0F9D64B7F22802189003A
S214012A505048806B4F4C246D001909F0EFF97F2028
S214012A60FDF7B3FB00F019FE00F017FE09F002FABD
S214012A7000684849C8654748C06DCB49884209DAAD
S214012A8000208D4908600020C84908608220FDF7B3
S214012A909CFB0DE00020C0433E498865A220FDF75F
S214012AA094FBC34B00223B48C16D1B2000F0C6FFC0
S214012AB000F0F3FDF8C3012014C4012008C401206E
S214012AC00020C04333498865A220FDF77EFBB94B41
S214012AD02E480268784801681B2000F0AFFF00F01E
S214012AE0DCFDDA49832009F0C9F98320FDF76DFB87
S214012AF000F0D3FD00F0D1FD2448006800284DD039
S214012B00002438E0D2480068005DD24909686A4A64
S214012B1012688854A5480068CD490968095D4018BF
S214012B20A249086064480068401C6349086062481E
S214012B300068FF281EDD80225200C6480168C6488C
S214012B400068C64B1B68C01801F03CF9002803D585
S214012B500020C0430F49886557480068FF21C943D4
S214012B60401855490860BD48006880214900401852
S214012B70BA490860641C05480068801E8442C1DBAF
S214012B808220FDF722FB82E0EA0B0000D8C3012079
S214012B9018C6012058C30120090C000046480068E9
S214012BA0012825DB44480268AA480168AA4800684B
S214012BB0AA4B1B68C01801F005F900280ED50020A5
S214012BC0C043DE498865DE4B3B480268A248006880
S214012BD0A249096841181B2000F030FF9F48006891
S214012BE03549096840189D49086000203249086047
S214012BF0D248806D0021C94388420AD06B480168DB
S214012C0095480068954A12688018001FFDF7FFFA7C
S214012C1001E00020C043002810D50020C043C7496A
S214012C208865A220FDF7D1FACE4B00228B480168B9
S214012C301B2000F003FF2AE0214E0000BF48C06DB4
S214012C4086490968884213D00020C043BB4988657D
S214012C50A220FDF7BAFAC44B80480268B748C16D96
S214012C601B2000F0EBFE12E01E0C00007700604017
S214012C707A480068001F7949086078480068AF49BB
S214012C80C8620020AD4948642B20FDF79EFA00F08B
S214012C9004FD0020C043A9498865A220FDF795FAE6
S214012CA0DA4BDB480268044801681B2000F0C6FEC8
S214012CB000F0F3FC360C000018C40120580C00008C
S214012CC0412239008231204C200000F039FD41229A
S214012CD03900C3311D4C200000F032FD1A4984B082
S214012CE06846822200F02CFD0FBC09F099F80020FE
S214012CF0924948630120914988632A4B87228021A3
S214012D0089008E48806B09F099F88720FDF75DFAF7
S214012D1000F0C3FC00F0C1FC09F0ACF8006887497C
S214012D20C8658648C06D2049884211DA0020C64928
S214012D3008600020C549086000201C4908608A20F8
S214012D40FDF743FA12E000BF2BC501206CC5012038
S214012D500020C04379498865A220FDF736FABC4BAE
S214012D6000227648C16D1B2000F068FE00F095FC3D
S214012D700020C04371498865A220FDF726FADA4B88
S214012D80A3480268B14801681B2000F057FE00F016
S214012D9084FC2E498B2009F071F88B20FDF715FA7B
S214012DA000F07BFC11010100010004001CC401209D
S214012DB0890C0000910C000000F06FFC944800683C
S214012DC000284DD0002438E021480068005D2149E4
S214012DD009689E4A12688854C44800681C490968F4
S214012DE0095D4018C149086098480068401C974929
S214012DF0086096480068FF281EDD802252001548AC
S214012E000168BB480068904B1B68C01800F0DAFFE9
S214012E10002803D50020C043484988658B480068D0
S214012E20FF21C94340188949086087480068802106
S214012E304900401884490860641C75480068801E73
S214012E408442C1DB8A20FDF7C0F975E03301010039
S214012E50DCC3012014C40120FCC30120ECC3012003
S214012E607A480068012825DB78480268D848016856
S214012E709F480068744B1B68C01800F0A3FF002829
S214012E800ED50020C0432D498865DA4B6F4802688D
S214012E90974800686C49096841181B2000F0CEFD70
S214012EA06948006869490968401867490860002050
S214012EB0664908602148806D0021C94388420AD0CE
S214012EC08A4801688A4800685F4A12688018001FAD
S214012ED0FDF79DF901E00020C04300280ED5002033
S214012EE0C04316498865A220FDF76FF9C24B002240
S214012EF0554801681B2000F0A1FD1DE00F48C06D7C
S214012F005149096888420FD00020C0430B498865A3
S214012F10A220FDF75AF9B94B4B4802680748C16D24
S214012F201B2000F08BFD07E047480068001F46495C
S214012F3008608E20FDF749F9AFE300BF58C30120B2
S214012F40BA0C00000020C043D4498865A220FDF7D2
S214012F503CF9D34B2E4802683C4801681B2000F020
S214012F606DFD9AE3CE0C0000D70C000041228220B2
S214012F7040003918D74C200000F0E2FB4122FF2028
S214012F8046303918D44C200000F0DAFBD14984B021
S214012F906846822200F0D4FB0FBC08F041FF0120F6
S214012FA0BE498863CD4B8F2280218900BB48806B48
S214012FB008F044FF8F20FDF708F96EE36DE308F093
S214012FC059FF0068B549C865B448C06DC449884210
S214012FD00CDA0020C349086000201C490860002064
S214012FE0424908609220FDF7F0F80DE00020C0434A
S214012FF0AA498865A220FDF7E8F8BB4B0022A7483E
S214013000C16D1B2000F01AFD47E300BFEB0C00006A
S214013010D8C301200020C043A0498865A220FDF73F
S214013020D4F8DA231B01D6480268084801681B2039
S21401303000F004FD31E3D349932008F01FFF9320ED
S214013040FDF7C3F829E300BFF4C3012018C401202B
S214013050120D000021E3CA48006800284AD0002467
S21401306038E0C9480068005D59490968C74A1268CE
S21401307088541E480068C4490968095D40181B4900
S2140130800860C2480068401CC0490860BF48006824
S214013090FF281EDD802252004D480168BC480068AA
S2140130A0904B1B68C01800F08DFE002803D5002049
S2140130B0C0437A498865B5480068FF21C94340186E
S2140130C0B249086087480068802149004018854950
S2140130D00860641CAA480068801E8442C1DB9220F6
S2140130E0FDF773F872E000BF1A0D00001CC4012042
S2140130F004C40120A5480068012825DBA34802680E
S21401310033480168A2480068764B1B68C01800F077
S21401311059FE00280ED50020C04360498865D44B6F
S2140131209A4802689A4800686E49096841181B2047
S21401313000F084FC6B4800689449096840186949A6
S21401314008600020914908605448806D0021C943F9
S21401315088420AD0CF4801688D480068614A1268E3
S2140131608018001FFDF753F801E00020C043002837
S2140131700ED50020C04349498865A220FDF725F8F1
S214013180C54B0022574801681B2000F057FC1DE084
S2140131904248C06D5349096888420FD00020C04399
S2140131A03E498865A220FDF710F8D34B4D480268CA
S2140131B03A48C16D1B2000F041FC07E04948006811
S2140131C0001F484908609620FCF7FFFF65E200BF34
S2140131D014C401200020C04330498865A220FCF7B2
S2140131E0F4FFC64B66480268684801681B2000F079
S2140131F025FC52E2420D0000560D00005F0D000056
S21401320041223900334C200000F09AFA412239005D
S2140132104131314C200000F093FA2E4984B06846C3
S214013220822200F08DFA0FBC08F0FAFD01201B493E
S21401323088632A4B9722802189001848806B08F002
S214013240FDFD9720FCF7C1FF27E226E208F012FEFB
S21401325000681249C8651148C06DBF4988420CDA3A
S2140132600020BE49086000204849086000208949BE
S21401327008609A20FCF7A9FF0EE00020C04307492A
S2140132808865A220FCF7A1FFE2231B010022034868
S214013290C16D1B2000F0D2FBFFE100BF58C3012027
S2140132A0730D00000020C043C4498865A220FCF7C6
S2140132B08CFFC34B32480268344801681B2000F07B
S2140132C0BDFBEAE12F499B2008F0D8FD9B20FCF7C7
S2140132D07CFFE2E12BC501206CC501201101010034
S2140132E001000400F0C30120980D0000D5E1244838
S2140132F0006800284ED0002438E023480068005DAE
S214013300B0490968214A12688854624800681E4913
S2140133100968095D40185F4908601C480068401C40
S2140133201A49086019480068FF281EDD80225200ED
S214013330A4480168A4480068884B1B68C01800F0C0
S21401334041FD002803D50020C0439C4988650F48ED
S2140133500068FF21C94340180C4908607F4800688F
S2140133608021490040187D490860641C04480068B3
S214013370801E8442C1DB9A20FCF727FF77E000BF5E
S214013380D8C3012033010100DCC3012018C4012089
S21401339000C40120C2480068012826DBC048026834
S2140133A088480168884800686C4B1B68C01800F0A4
S2140133B009FD00280FD50020C04380498865E52314
S2140133C01B01B748026880480068644909684118CB
S2140133D01B2000F033FB61480068B14909684018BA
S2140133E05E4908600020AE4908607448806D00217F
S2140133F0C94388420AD02748016873480068574A7B
S21401340012688018001FFCF702FF01E00020C0438D
S21401341000280ED50020C04368498865A220FCF725
S214013420D4FEB14B00224D4801681B2000F006FB7C
S2140134301DE06248C06D4949096888420FD00020E6
S214013440C0435E498865A220FCF7BFFEB34B4348E4
S21401345002685A48C16D1B2000F0F0FA07E04320CD
S214013460FCF7B3FE3D480068001F3C49086014E1C4
S214013470C80D00000020C04350498865A220FCF713
S214013480A4FEA94BA9480268854801681B2000F0E4
S214013490D5FA02E11CC40120DC0D000008F011F889
S2140134A008F02AF94548806D002869D143488068AC
S2140134B0012807D000D280E0032833D02AD304287D
S2140134C056D07AE003F0EEF9012803D1002003F08C
S2140134D0F3F902E0012003F0EFF9002810D503F01C
S2140134E0E1F9934B002201001B2000F0A7FAA5206A
S2140134F0FCF76BFE0BE000BFE50D0000F90D0000C8
S2140135008C49A32007F003FFA320FCF75EFE03F01F
S214013510D1F852E08749A32007F0F9FEA320FCF773
S21401352054FE4AE0002003F0BDF9012803D1002033
S21401353003F0C2F902E0012003F0BEF900280FD51E
S21401354003F0B0F97C4B002201001B2000F076FA54
S214013550A520FCF73AFE0AE001001000F8C301209E
S2140135607449A32007F0D3FEA320FCF72EFE24E027
S2140135707049A32007F0CBFEA320FCF726FE1CE033
S2140135800E488068012806D010D3032809D005D339
S214013590042809D00AE003F08DF807E003F08AF862
S2140135A004E003F087F801E003F084F86149A32002
S2140135B007F0ADFEA320FCF708FE6EE058C301201D
S2140135C0280E000014C4012008C4012065E0002074
S2140135D05A49487059488068012806D054D30328B0
S2140135E026D016D304283CD04EE05448806D0028DF
S2140135F008D1252006F0AAF807F075FE0020FCF792
S214013600E4FD05E0262006F0A1F8A620FCF7DDFD86
S2140136103AE04A48806D002803D1282006F096F843
S21401362002E0292006F092F8A620FCF7CEFD2BE05A
S2140136304248806D002808D1002008F034FC07F0CD
S21401364052FE0020FCF7C1FD0AE00020C04308F04E
S2140136502AFCA620FCF7B9FD08F0DAFB04F023FEED
S21401366012E03648806D002803D1002008F046FCA1
S21401367003E00020C04308F041FCA620FCF7A5FDAE
S21401368008F0C6FB04F00FFE07E006E0A720FCF7F3
S2140136909CFD02E00020FCF798FD3FB0F0BD000065
S2140136A018C4012000200121244AD1667047002059
S2140136B00221224AD1660021204A11677047002064
S2140136C002211E4AD16601211C4A1167704700205B
S2140136D003211A4AD166704700200421174AD16691
S2140136E00021164A11677047640E0000002004216D
S2140136F0124AD1660121114A116770470F490866BF
S214013700704700B502000020C0430B00002B04D018
S2140137100A48426609488166002000BD6D0E000019
S21401372006494978017070477D0E0000D8C3012014
S2140137309A0E000011010100BE0E000058C30120C0
S214013740124207D08B0706D00B78491C0370401C29
S214013750521EF7D87047830706D00B78491C0370B2
S214013760401C521EF9D1704770B4103A03D378C981
S214013770103A78C0FBD2530701D318C918C001D537
S21401378008C908C0D20704D30B880380891C801C93
S214013790002A01D50B78037070BC7047F0B58BB06A
S2140137A006000025002008F063FC09900896A14851
S2140137B04068AC214900884214D3FF205A30864223
S2140137C00EDA9C4800688419641EAC2040008442CE
S2140137D001DB99482418AC204000861B761C0DE0BE
S2140137E000260BE000208419641E9248006884427B
S2140137F001D3002602E08F480068061B0B2E00DB73
S2140138000A26012E68DB002760E08A4818216143FA
S2140138104018007A002858D086481821614340187D
S214013820007A1F2851DA2800963080210901884243
S2140138304BDA8048182161434018406907907D485B
S214013840182161434018C07F06907A4818216143C9
S2140138504018807F05907748182161434018407FC3
S21401386004907448182161434018007F0390714802
S214013870182161434018006902906E48182161437F
S2140138804018C06801906B48182161434018806950
S214013890009097486749182262438918097A0422DA
S2140138A051434358089AB8490998401908F0E4FB6F
S2140138B0099808F0FDFB0500641CAC20400084421A
S2140138C000DB00240898401C08907F1CB7429CDB54
S2140138D02900099808F072FA08980BB0F0BDF0B507
S2140138E085B007000026002000200024002508F0EF
S2140138F0BFFB049003979F48006880218900884297
S21401390013D3A24887420EDAA1480068C419641E80
S21401391080208000844201DB9E482418802080009D
S214013920C51B6D1C0DE000250BE00020C419641EAC
S21401393097480068844201D3002502E09448006855
S214013940051B0B2D00DB0A25012D68DB002760E037
S21401395038480C2161434018A549405C002857D0DF
S21401396034480C2161434018A149405C0B284FDACA
S21401397030480C21614340189E49405C002847D0DE
S2140139802C480C21614340189A49405C06283FDACE
S2140139903000963080210901884239DA25480C2109
S2140139A06143401894494058029022480C216143D3
S2140139B0401892494058019091481E490C22624392
S2140139C089188C4A895C042251434018001F0068FC
S2140139D000908C4817490C2262438918844A895CF6
S2140139E0042251434018001F0368039A864904982D
S2140139F0801908F041FB049808F05AFB0600641C85
S214013A0080208000844200DB00240398401C039041
S214013A107F1CAF429CDB3100049808F0CFF9039875
S214013A2005B0F0BD10B579490022794C200000F0B0
S214013A3031FA10BD246C0020A8FEFFFF7CB5744C43
S214013A402468744D2D68012D51D0714D182666439A
S214013A50AD1928726E48182565434019C1606C4837
S214013A6018216143401802616948182161434018D2
S214013A708361684608F0AFFB03F0C6FB6449182271
S214013A806243891848616846807861491822624312
S214013A90891808776846C0785D49182262438918F4
S214013AA04877684600795A49182262438918887708
S214013AB0684640795649182262438918C877FF201C
S214013AC05830844205D252480068401C504908606C
S214013AD002E000204E4908604D484068AC2149008C
S214013AE0884204D24A484068401C4949486073BD30
S214013AF0A005002038B5264B1C68464B1B68022BD8
S214013B0030D0434B0C2565435B19394D5855404819
S214013B100C236343C018374BC1543D480C21614305
S214013B2040183649425003F06FFB39490C22624374
S214013B308918314A88503848844205D214480068AA
S214013B40401C1349086002E000201149086009483A
S214013B50006880218900884204D206480068401C1B
S214013B600449086031BD01202A49086001202B491B
S214013B7008607047708C00200220264908600120EA
S214013B802649086070470000440403000102000053
S214013B906C8C002000FEFFFF80B51E4800680128DF
S214013BA010D11E480068FFF7F9FD1C4909688142DB
S214013BB002D01A49086019E008F00CF900201549EE
S214013BC0086013E01348006802280FD11348006804
S214013BD0FFF785FE11490968814202D00F49086046
S214013BE004E008F0F7F800200A49086001BD00006B
S214013BF050200000512000005820000054200000F2
S214013C00480600201C060020A0090300BC3800005E
S214013C10246C002074A40020FF01000078A400207A
S214013C2080B566494969002908D0010063480069E2
S214013C30624A5269904700206049486100205F4906
S214013C40087000205D49486001BD80B508F004FB9E
S214013C5001BD80B559484068002803D002280AD023
S214013C6001D312E011E055480078002802D1012066
S214013C705249087009E051480078002805D1002013
S214013C804E49886103204D4908704C480078002849
S214013C9006D002281AD004D304284BD02DD36EE0C8
S214013CA06DE008F06FFB002801D408F0D9FA00286F
S214013CB007D402204149087003F0A6FA3F49C861BB
S214013CC003E00020C043FFF7ABFF58E008F078FBA5
S214013CD0002803D00020FFF7A3FF0DE003F094FABD
S214013CE001003648C06903F093FA3549884203D388
S214013CF00020C043FFF794FF41E008F043FB002893
S214013D0009D42E4880682D49896980225202514380
S214013D10401808F0B5FA002807D40420274908708F
S214013D2003F072FA2549C86103E00020C043FFF79B
S214013D3077FF24E008F044FB002812D01F48806972
S214013D40401C1E4988611D4880691C49C968884213
S214013D5003DB0020FFF764FF11E00320174908701A
S214013D600DE003F051FA01001448C06903F050FA5F
S214013D701349884203D30020C043FFF751FF01BD1A
S214013D80F4B504000D001E000027FF43200080212B
S214013D90490208F013F900290ED1012D0CDB02208F
S214013DA006494860054884600448C5600098034990
S214013DB008610248466100273800F2BD60D3012041
S214013DC061EA0000F1B50F0016000024E44308F094
S214013DD04FF90500802252003900009808F06AFA6F
S214013DE000280ED432002900009808F0AAFA00280C
S214013DF007D432002900380008F0FBFA002800D169
S214013E0000242000F2BD80B50023DB4308F099FAB8
S214013E100300180002BDF8B4016842184368590847
S214013E20511800918168DB0701D54B46C918009BE4
S214013E309A4202D10C30F2BC70471378521C03240C
S214013E4003261E4002D11678F61C521C1D090F2DA2
S214013E5007D115780F35521C03E01778521C0F70E6
S214013E60491C761EF9D1002DE1D01678521C9B080C
S214013E701C40032C01D11478521C2302F3185C4217
S214013E800B19AD1CD3D01C785B1C0C70491C6D1E25
S214013E90CDD0F8E71206130A1A43130C1A4300BFD3
S214013EA0094205D0830705D00270401C491EF9D18E
S214013EB070470000130030B414001500103902D307
S214013EC010393CC0FCD2490700D30CC000D504C051
S214013ED0890002D30280801C002900D5027030BC04
S214013EE0704700000022E5E700B52749097802007F
S214013EF0D2B2914213D0244908702449244A126848
S214013F008918244A885422480068401C20490860C1
S214013F101F480068642802DB00201D49086000BDB8
S214013F2019480078704780B5020001201A4B1860C6
S214013F3090B21A4B18601A4801600320194B18609A
S214013F401948007880070BD50B001849184808F067
S214013F5093F8174808F0ACF80100154804F023FA66
S214013F6001BD80B509498968002908D001000748C4
S214013F704068064A926890470020044988600020FD
S214013F80FFF7B2FF01BD000004BC012068B60120A6
S214013F9080BC0120B405000008BC01200CBC012037
S214013FA010BC012000BC0120FCD40120540B0300EE
S214013FB034D00120F8B582B005000E000AF0BCFF2F
S214013FC00AF0BCFF0090824F02F0C8FF0020814932
S214013FD008600298012830D00A2800D19EE01428F3
S214013FE000D1BDE0152800D1CBE0162800D1A6E00F
S214013FF01F2800D1E1E0202800D1D3E0292800D1F4
S214014000EAE02A2800D1F2E02B2800D1FAE02C2899
S21401401000D102E12D2800D13AE1322800D142E157
S214014020332800D150E1342800D16DE1352800D184
S21401403080E1362800D172E187E1002400E0641CAB
S214014040032C11DAAF48082161434018406808F094
S2140140502FF80200AB480821614340184168280048
S21401406008F0C7F90028EAD1002C05D0022C2ED082
S2140140702CD3032C51D050E0FFF752FF12281AD14F
S2140140800120B2490860FFF74BFFB14908600320E1
S214014090B04908609B4808214C430019406808F065
S2140140A007F8AD490860AC4802682900AB4C20000F
S2140140B0FFF746FB09E0FFF733FFFF2374330022C7
S2140140C0C0B201001620FFF7B9FC26E025E0032464
S2140140D000E0641CB44219DA285D0D28F9D12819CC
S2140140E040780A28F5D1281980780D28F1D12819A9
S2140140F0C0780A28EDD17868002807D000233A68EE
S214014100311B091F2819001D7C68A04794480068C8
S2140141100421014392480160FFE716E191480068D7
S214014120002805D00121904800688E4A1268904701
S2140141308B480068042188438949086005E18B485B
S2140141400068002805D0022189480068874A12685D
S2140141509047834800680221014381480160F4E0EA
S214014160C92E00DBC8267B480460320029007B4C40
S2140141702000FFF7E5FA7848066001207D490860CF
S214014180E3E07A480068002805D0012178480068F5
S214014190764A12689047724800680221884370493F
S2140141A00860D2E074480068002805D002217348F0
S2140141B00068714A12689047C7E06F480068002897
S2140141C005D001216D4800686B4A12689047BCE033
S2140141D028BB012010BC012069480068002805D0D2
S2140141E0052168480068664A12689047ADE0644851
S2140141F00068002805D0012162480068604A1268FC
S2140142009047A2E05E480068002805D007215D4877
S21401421000685B4A1268904797E00098007800288B
S2140142200ED002280ED00CD3042817D015D306289A
S21401423020D01ED308281FD01DD3092827D026E05A
S21401424025E024E04E480068002805D00B214D48A3
S21401425000684B4A1268904719E018E04848006821
S214014260002805D00C2147480068454A1268904747
S2140142700DE00CE00BE00AE041480068002805D09C
S2140142800D21404800683E4A12689047FFE75CE00F
S2140142903B480068002805D00E213A480068384A95
S2140142A01268904751E0FFF73BFE1C280BD12C48C3
S2140142B08069002807D00023294842683100280079
S2140142C0274CA469A04740E0FFF72AFE1C2818D116
S2140142D01D20FFF709FE2C492C4802F0F9FE204864
S2140142E0806900280AD000231D4842683100280052
S2140142F01B4CA469A0470020194988610020FFF7DC
S214014300F3FD22E0400D030021480068002805D097
S2140143100821204800681E4A1268904715E01C488C
S2140143200068002805D00A211A480068184A126851
S21401433090470AE016480068002805D0092115486C
S2140143400068134A12689047FFE7F7BD08BC0120D2
S2140143500CBC012000BC0120FCBB012034BB0120A9
S21401436068B6012014BB012010BB01201CBB012034
S21401437018BB012030BB01200CBB012008BB01206B
S21401438004BB012000BB0120C0D401001C0030404A
S21401439024BB012020BB012038B50020C04302F019
S2140143A0DDFD05000AF0CAFD040002F09DFBC049D0
S2140143B00968002900D161E20021BD4A1160BD49AA
S2140143C00968002900D023E2BB490968012960D0A9
S2140143D0022900D188E0032900D189E0042900D10F
S2140143E0A9E0052900D1AAE0062900D1ABE00729FA
S2140143F000D1ACE0082900D1ADE0092900D1C0E028
S2140144000A2900D1D3E00B2900D1FFE00C2900D105
S2140144108AE00D2900D128E10E2900D132E10F29C9
S21401442000D14BE1102900D14CE1112900D151E115
S214014430122900D156E1132900D147E1142900D1F0
S21401444054E1152900D159E1162900D152E1172965
S21401445000D157E1182900D158E1192900D159E1B5
S2140144601A2900D15AE11B2900D15BE11C2900D190
S21401447061E11F2900D17CE1202900D192E12129A7
S21401448000D1A6E1222900D0B7E10020FFF769FD9F
S214014490F4E10AF051FD04002068022817D1E06813
S2140144A001280ED1207D632805D0221D0121002080
S2140144B007F013FE10E0221D0021002007F00DFE7C
S2140144C00AE0221D0021002007F007FE04E0221D5D
S2140144D00021002007F001FE2000243002F086FAB9
S2140144E00020FFF73EFDC9E10020FFF73AFDC5E1D8
S2140144F06821405C002813D10C20FFF7F5FCC34966
S2140145000C200AF071FA00280DD5CA4B00220021B2
S2140145101620FFF793FA0020C043FFF722FD02E0C2
S2140145200020FFF71EFDA9E10020FFF71AFD601C21
S21401453002F064FAA2E10020FFF713FD9EE10020DD
S214014540FFF70FFD9AE10020FFF70BFD96E1002033
S214014550FFF707FD92E1CA48285C01280DD1C9483A
S214014560C9490860C748C9490860002002F0E6FC4E
S214014570002205210920FFF7BDFA0020FFF7F1FC14
S2140145807CE1BF48285C01280DD1BE48BE490860C1
S214014590BC48BE490860002002F0D0FC002205217C
S2140145A00920FFF7A7FA0020FFF7DBFC66E1607C35
S2140145B0202805DA617C484202214843713000E038
S2140145C07220B949096881421CD0B7490860AC49D4
S2140145D06C5CAB49695C012908D147280EDB0024D5
S2140145E0002205210920FFF785FA07E0422805DAAF
S2140145F00124012205210920FFF77CFA2000C0B220
S21401460002F09CFC0020FFF7ACFC37E10020B24929
S2140146100860A069616961699C4A11609A490968E4
S21401462081421ED09849086095496C5C9449695C42
S214014630012909D19D4988420FDA0024002205216B
S2140146400920FFF757FA08E09849884205DB01245C
S214014650012205210920FFF74DFA2000C0B202F021
S2140146606DFC0020FFF77DFC08E18648864908605E
S214014670844886490860002002F060FC0020FFF7AD
S21401468070FCFBE00F20FFF72FFC60490F200AF0BB
S214014690E5F900280AD5C9239B000022002116202F
S2140146A0FFF7CCF90020C043FFF75BFCE6E000BF54
S2140146B008BC012010BC01200CBC01200020FFF723
S2140146C050FCDBE00020FFF74CFCD7E00020FFF7B2
S2140146D048FCD3E081480068032802D11220FFF786
S2140146E003FCCBE00020FFF73CFCC7E00020FFF70F
S2140146F038FCC3E00020FFF734FCBFE00020FFF7E2
S21401470030FCBBE00020FFF72CFCB7E00020FFF7F1
S21401471028FCB3E00020FFF724FCAFE00020FFF701
S21401472020FCABE01C20FFF7DFFB384A9649974890
S21401473002F097FCA2E01E20FFF7D6FBA84880698E
S214014740002812D00023DB43A54842680021002040
S214014750A34CA469A0470020A14988618C4B002284
S2140147608C4801681620FFF769F90020FFF7BCFBAB
S21401477084E00AF0E1FB0400E068012805D1221D6F
S2140147800121002007F0A9FC05E0964B002200213C
S2140147901620FFF753F90120934908600020FFF720
S2140147A0A3FB6BE00AF0C8FB0400E068012803D114
S2140147B0201D07F005FD05E08C4B00220021162088
S2140147C0FFF73CF90120884908600020FFF78CFBC1
S2140147D054E00AF0B1FB04009748211D0622FEF7BB
S2140147E0AFFFE068012803D10020FFF7BAFB03E022
S2140147F00020C043FFF7B5FB40E0904B0022654820
S21401480001681620FFF71AF938E000BF273F0100BC
S214014810604800681F280FD1012073490860884B43
S214014820002200211620FFF709F90020FFF75CFBA4
S21401483024E000BF890200000020C043FFF791FB7F
S214014840924B0022534801681620FFF7F7F85148AB
S21401485000680B2812D120480068052809DB0948A2
S21401486009490860074809490860002002F066FB0C
S21401487004E019480068401C1749086031BD000073
S214014880D80B000019FCFFFF8CBC012088BC01205E
S21401489000B50020C043BA480068002802D00020B6
S2140148A0B749086000BD000084BC01200DFEFFFF73
S2140148B010B509F0E1FE8A4900200AF030FB89496B
S2140148C00022474C2000FFF7E5FA7148714908605D
S2140148D06F488549086010BD14BC012000BC01204A
S2140148E070B50AF029FB050002F038FB0400FFF75B
S2140148F053FDFFF7CDFF02F087FC0600FFF710FB24
S214014900122816D131003648406A02F081FC34493B
S214014910096A81420CD20020C043FFF722FB002027
S214014920FFF7E2FA974B002200211620FFF786F8E0
S214014930FFE707F054FC022817D12B48006800282F
S21401494013D1FFF7EDFA00280FD18F48205C01281C
S2140149500BD12868022808D1B2491F200AF0F8FABC
S214014960002802D41F20FFF7BFFA70BD00B5020071
S2140149700020C0430B00002B04D096480260AA48D2
S2140149800160002000BD0000C0D401001C003040C2
S2140149906D0300000CBC012070B506000D0000245C
S2140149A0E443FFF7BDFA00280DD19E49222009F005
S2140149B001FF0400002C06D42220FFF795FA5D487B
S2140149C046605C488560002C08D5FFF7A9FAB04B15
S2140149D03200C0B201001620FFF730F8200070BD8B
S2140149E068B601207B03000018BC01208B03000081
S2140149F070B506000D000024E443FFF791FA002885
S214014A000DD18849012009F00BFF0400002C06D4C3
S214014A100120FFF769FA4748466046488560002C42
S214014A2008D5FFF77DFAAD4B3200C0B20100162063
S214014A30FFF704F8200070BD90BC0120A103000020
S214014A40A903000070B506000D000024E443FFF73B
S214014A5067FA00280DD17349022009F0FDFE040013
S214014A60002C06D40220FFF73FFA32484660314850
S214014A708560002C08D5FFF753FAAB4B3200C0B265
S214014A8001001620FEF7DAFF200070BDAF0300001C
S214014A9019FCFFFF8CBC012070B506000D00002438
S214014AA0E443FFF73DFA00280DD15E49032009F0E3
S214014AB0F1FE0400002C06D40320FFF715FA1D486A
S214014AC046601C488560002C08D5FFF729FAAD4BD7
S214014AD03200C0B201001620FEF7B0FF200070BD04
S214014AE0B53F01009406000088BC012070B50600A1
S214014AF00D000024E443FFF713FA00280DD14949BD
S214014B00072009F0EBFE0400002C06D40720FFF76F
S214014B10EBF90848466007488560002C08D5FFF782
S214014B20FFF9A04B3200C0B201001620FEF786FF47
S214014B30200070BD68B6012070B506000D00002487
S214014B40E443FFF7EDF900280DD13649082009F0B6
S214014B50E5FE0400002C06D40820FFF7C5F99248AC
S214014B60466091488560002C08D5FFF7D9F9A44B1B
S214014B703200C0B201001620FEF760FF200070BDB3
S214014B8030BB012013040000D80B000070B50600EE
S214014B900D000024E443FFF7C3F900280DD1214995
S214014BA0092009F0DBFE0400002C06D40920FFF7DB
S214014BB09BF97D4846607C488560002C08D5FFF748
S214014BC0AFF9A24B3200C0B201001620FEF736FF45
S214014BD0200070BD00BB012070B506000D0000244A
S214014BE0E443FFF79DF900280DD10E490D2009F089
S214014BF019FF0400002C06D40D20FFF775F96A484A
S214014C00466069488560002C09D5FFF789F9AE230F
S214014C10DB003200C0B201001620FEF70FFF2000B5
S214014C2070BD0000273F010004BB012070B50600DF
S214014C300D000024E443FFF773F900280DD18449E1
S214014C400B2009F0B1FE0400002C06D40B20FFF760
S214014C504BF95548466054488560002C08D5FFF747
S214014C605FF9C64B3200C0B201001620FEF7E6FE21
S214014C70200070BD00B502000020C0430B00002BD1
S214014C8004D0A4480260BE480160002000BD0000B8
S214014C907304000070B506000D000024E443FFF71E
S214014CA03FF900280DD16A49042009F0D7FE040017
S214014CB0002C06D40420FFF717F93B4846603A4813
S214014CC08560002C08D5FFF72BF9C04B3200C0B227
S214014CD001001620FEF7B2FE200070BD970400000A
S214014CE070B506000D000024E443FFF719F900280B
S214014CF00DD15749062009F0D3FE0400002C06D436
S214014D000620FFF7F1F82848466027488560002C02
S214014D1008D5FFF705F9AE4B3200C0B201001620E8
S214014D20FEF78CFE200070BDBB040000F4B5050044
S214014D300F001E000024E443FFF7F2F8002814D108
S214014D40434B05223900280009F0CCFE0400002C54
S214014D500BD40520FFF7C8F800981349486012489D
S214014D608660114885621048C762002C08D5FFF797
S214014D70D7F8C64B009AC0B201001620FEF75EFEB9
S214014D802000F2BDDF04000000B502000020C04391
S214014D900B00002B04D08F480260BD480160002044
S214014DA000BD00000305000068B6012070B50600CE
S214014DB00D000024E443FFF7B3F8002813D124497B
S214014DC0102009F017FF0400002C0CD41020FFF768
S214014DD08BF8A6484660A5488560A448006802216D
S214014DE00143A2480160002C08D5FFF799F8BB4B98
S214014DF03200C0B201001620FEF720FE200070BD72
S214014E002705000070B506000D000024E443FFF7F7
S214014E1087F800280DD10E49132009F01DFF040064
S214014E20002C06D41320FFF75FF8904846608F48A1
S214014E308560002C08D5FFF773F8BD4B3200C0B271
S214014E4001001620FEF7FAFD200070BD4B0500009C
S214014E50273F0100FDB50E000024E44301F08CFD60
S214014E6005009F4FFFF75CF8002838D133002A0071
S214014E7020329C493800343007F0FEF838003430D0
S214014E8007F016F90500A819AA49884227DA320060
S214014E9000997819040034342000FEF751FCAD194E
S214014EA0A54B112229003800343009F0F9FE040020
S214014EB0002C14D41120FFF717F802986B494860AC
S214014EC008986A4988600098684988626748C66297
S214014ED001986649086202F097F964494862002C15
S214014EE008D5FFF71DF8BD4B029AC0B20100162087
S214014EF0FEF7A4FD2000FEBD00B502000020C04361
S214014F000B00002B04D0A1480260B54801600020C8
S214014F1000BD000008BB012000B502000020C04310
S214014F200B00002B04D09A480260C24801600020A2
S214014F3000BD000070B506000D000024E443FEF736
S214014F40EFFF00280DD17C49142009F0D7FE04009C
S214014F50002C06D41420FEF7C7FF44484660434899
S214014F608560002C08D5FEF7DBFFC54B3200C0B2CA
S214014F7001001620FEF762FD200070BDBA05000094
S214014F800CBB012070B506000D000024E443FEF7BB
S214014F90C7FF00280DD16849162009F0CFFE04008E
S214014FA0002C06D41620FEF79FFF304846602F4897
S214014FB08560002C08D5FEF7B3FFBD4B3200C0B2AA
S214014FC001001620FEF73AFD200070BDF70500002F
S214014FD01B06000018BB0120FEB507000025ED43A7
S214014FE03F4EFEF79DFF002831D1009AA5493000BB
S214014FF0343007F041F83000343007F059F8040037
S214015000009820184B49884221DA009A3900301955
S214015010050034352800FEF793FB00982418464B0C
S214015020152221003000343009F0B0FE0500002DB5
S2140150300DD41520FEF758FF01980C4948600298D8
S2140150400A4988600948876200980849C862002DA5
S21401505009D5FEF765FFB24B00996218C0B2010090
S2140150601620FEF7EBFC2800FEBD000068B6012006
S21401507000B502000020C0430B00002B04D0A94855
S2140150800260A9480160002000BD00004306000040
S2140150901CBB012070B506000D000024E443FEF79A
S2140150A03FFF00280DD12449172009F09FFE040078
S2140150B0002C06D41720FEF717FF9C4846609B4835
S2140150C08560002C08D5FEF72BFF994B3200C0B245
S2140150D001001620FEF7B2FC200070BD7F0600001E
S2140150E06CB601200C08030070B506000D00002404
S2140150F0E443FEF715FF00280DD10F49182009F0EB
S21401510093FE0400002C06D41820FEF7EDFE874817
S214015110466086488560002C08D5FEF701FF854B62
S2140151203200C0B201001620FEF788FC200070BDD8
S214015130A506000061040000273F0100F8B5050040
S2140151400F0016000024E443FEF7EAFE002810D103
S214015150794A1A21280009F085FE0400002C08D49B
S2140151601A20FEF7C1FE71484760704886606F4896
S214015170C561002C08D5FEF7D3FE704B3A00C0B2CD
S21401518001001620FEF75AFC2000F2BD10BB0120DC
S21401519028BB012070B506000D000024E443FEF78D
S2140151A0BFFE00280DD16449192009F07DFE0400D8
S2140151B0002C06D41920FEF797FE5C4846605B4833
S2140151C08560002C08D5FEF7ABFE5D4B3200C0B201
S2140151D001001620FEF732FC200070BDDE0600003E
S2140151E014BB0120F8B505000F0016000024E443A7
S2140151F0FEF796FE002810D14F4A1B21280009F021
S2140152006FFE0400002C08D41B20FEF76DFE4748F5
S2140152104760464886614548C561002C08D5FEF7BB
S2140152207FFE484B3A00C0B201001620FEF706FC8E
S2140152302000F2BD2CBB012070B506000D00002435
S214015240E443FEF76DFE00280DD13B49212009F00D
S2140152507FFE0400002C06D42120FEF745FE3348CD
S214015260466032488560002C08D5FEF759FE364B5D
S2140152703200C0B201001620FEF7E0FB200070BD30
S21401528032070000C809030010B50024FEF748FEE7
S214015290002800D0012425480078400700D50124C5
S2140152A009F04EFE012800D10124200010BD0000A7
S2140152B05607000010B50024FEF732FE002800D085
S2140152C0012409F03DFE012800D10124200010BD73
S2140152D080B509F031FE017D0091C36802681B4963
S2140152E01B4806F0C9FE1A4806F0E2FE01001848FF
S2140152F006F064FD01BD174A126802601648006890
S214015300086070471548704780B515481149086010
S214015310134811490860002001F010FE01BD00008D
S2140153208A07000020BB012024BB012068B60120AB
S214015330C5070000E9070000273F01000F0800002D
S21401534032080000590800007D080000D00803005C
S21401535096BC01208CBC012088BC012090BC012099
